{
  "_format": "hh-sol-artifact-1",
  "contractName": "PolkaExToken",
  "sourceName": "contracts/PKEX-Upgradeable.sol",
  "abi": [
    {
      "anonymous": false,
      "inputs": [
        {
          "indexed": true,
          "internalType": "address",
          "name": "owner",
          "type": "address"
        },
        {
          "indexed": true,
          "internalType": "address",
          "name": "spender",
          "type": "address"
        },
        {
          "indexed": false,
          "internalType": "uint256",
          "name": "value",
          "type": "uint256"
        }
      ],
      "name": "Approval",
      "type": "event"
    },
    {
      "anonymous": false,
      "inputs": [
        {
          "indexed": false,
          "internalType": "address",
          "name": "account",
          "type": "address"
        }
      ],
      "name": "Paused",
      "type": "event"
    },
    {
      "anonymous": false,
      "inputs": [
        {
          "indexed": true,
          "internalType": "bytes32",
          "name": "role",
          "type": "bytes32"
        },
        {
          "indexed": true,
          "internalType": "bytes32",
          "name": "previousAdminRole",
          "type": "bytes32"
        },
        {
          "indexed": true,
          "internalType": "bytes32",
          "name": "newAdminRole",
          "type": "bytes32"
        }
      ],
      "name": "RoleAdminChanged",
      "type": "event"
    },
    {
      "anonymous": false,
      "inputs": [
        {
          "indexed": true,
          "internalType": "bytes32",
          "name": "role",
          "type": "bytes32"
        },
        {
          "indexed": true,
          "internalType": "address",
          "name": "account",
          "type": "address"
        },
        {
          "indexed": true,
          "internalType": "address",
          "name": "sender",
          "type": "address"
        }
      ],
      "name": "RoleGranted",
      "type": "event"
    },
    {
      "anonymous": false,
      "inputs": [
        {
          "indexed": true,
          "internalType": "bytes32",
          "name": "role",
          "type": "bytes32"
        },
        {
          "indexed": true,
          "internalType": "address",
          "name": "account",
          "type": "address"
        },
        {
          "indexed": true,
          "internalType": "address",
          "name": "sender",
          "type": "address"
        }
      ],
      "name": "RoleRevoked",
      "type": "event"
    },
    {
      "anonymous": false,
      "inputs": [
        {
          "indexed": true,
          "internalType": "address",
          "name": "from",
          "type": "address"
        },
        {
          "indexed": true,
          "internalType": "address",
          "name": "to",
          "type": "address"
        },
        {
          "indexed": false,
          "internalType": "uint256",
          "name": "value",
          "type": "uint256"
        }
      ],
      "name": "Transfer",
      "type": "event"
    },
    {
      "anonymous": false,
      "inputs": [
        {
          "indexed": false,
          "internalType": "address",
          "name": "account",
          "type": "address"
        }
      ],
      "name": "Unpaused",
      "type": "event"
    },
    {
      "inputs": [],
      "name": "DEFAULT_ADMIN_ROLE",
      "outputs": [
        {
          "internalType": "bytes32",
          "name": "",
          "type": "bytes32"
        }
      ],
      "stateMutability": "view",
      "type": "function"
    },
    {
      "inputs": [],
      "name": "MINTER_ROLE",
      "outputs": [
        {
          "internalType": "bytes32",
          "name": "",
          "type": "bytes32"
        }
      ],
      "stateMutability": "view",
      "type": "function"
    },
    {
      "inputs": [
        {
          "internalType": "address",
          "name": "owner",
          "type": "address"
        },
        {
          "internalType": "address",
          "name": "spender",
          "type": "address"
        }
      ],
      "name": "allowance",
      "outputs": [
        {
          "internalType": "uint256",
          "name": "",
          "type": "uint256"
        }
      ],
      "stateMutability": "view",
      "type": "function"
    },
    {
      "inputs": [
        {
          "internalType": "address",
          "name": "spender",
          "type": "address"
        },
        {
          "internalType": "uint256",
          "name": "amount",
          "type": "uint256"
        }
      ],
      "name": "approve",
      "outputs": [
        {
          "internalType": "bool",
          "name": "",
          "type": "bool"
        }
      ],
      "stateMutability": "nonpayable",
      "type": "function"
    },
    {
      "inputs": [
        {
          "internalType": "address",
          "name": "account",
          "type": "address"
        }
      ],
      "name": "balanceOf",
      "outputs": [
        {
          "internalType": "uint256",
          "name": "",
          "type": "uint256"
        }
      ],
      "stateMutability": "view",
      "type": "function"
    },
    {
      "inputs": [
        {
          "internalType": "address",
          "name": "account",
          "type": "address"
        },
        {
          "internalType": "uint256",
          "name": "amount",
          "type": "uint256"
        }
      ],
      "name": "burnFrom",
      "outputs": [],
      "stateMutability": "nonpayable",
      "type": "function"
    },
    {
      "inputs": [],
      "name": "decimals",
      "outputs": [
        {
          "internalType": "uint8",
          "name": "",
          "type": "uint8"
        }
      ],
      "stateMutability": "view",
      "type": "function"
    },
    {
      "inputs": [
        {
          "internalType": "address",
          "name": "spender",
          "type": "address"
        },
        {
          "internalType": "uint256",
          "name": "subtractedValue",
          "type": "uint256"
        }
      ],
      "name": "decreaseAllowance",
      "outputs": [
        {
          "internalType": "bool",
          "name": "",
          "type": "bool"
        }
      ],
      "stateMutability": "nonpayable",
      "type": "function"
    },
    {
      "inputs": [
        {
          "internalType": "bytes32",
          "name": "role",
          "type": "bytes32"
        }
      ],
      "name": "getRoleAdmin",
      "outputs": [
        {
          "internalType": "bytes32",
          "name": "",
          "type": "bytes32"
        }
      ],
      "stateMutability": "view",
      "type": "function"
    },
    {
      "inputs": [
        {
          "internalType": "bytes32",
          "name": "role",
          "type": "bytes32"
        },
        {
          "internalType": "address",
          "name": "account",
          "type": "address"
        }
      ],
      "name": "grantRole",
      "outputs": [],
      "stateMutability": "nonpayable",
      "type": "function"
    },
    {
      "inputs": [
        {
          "internalType": "bytes32",
          "name": "role",
          "type": "bytes32"
        },
        {
          "internalType": "address",
          "name": "account",
          "type": "address"
        }
      ],
      "name": "hasRole",
      "outputs": [
        {
          "internalType": "bool",
          "name": "",
          "type": "bool"
        }
      ],
      "stateMutability": "view",
      "type": "function"
    },
    {
      "inputs": [
        {
          "internalType": "address",
          "name": "spender",
          "type": "address"
        },
        {
          "internalType": "uint256",
          "name": "addedValue",
          "type": "uint256"
        }
      ],
      "name": "increaseAllowance",
      "outputs": [
        {
          "internalType": "bool",
          "name": "",
          "type": "bool"
        }
      ],
      "stateMutability": "nonpayable",
      "type": "function"
    },
    {
      "inputs": [
        {
          "internalType": "address",
          "name": "ownerAccount",
          "type": "address"
        }
      ],
      "name": "initialize",
      "outputs": [],
      "stateMutability": "nonpayable",
      "type": "function"
    },
    {
      "inputs": [
        {
          "internalType": "address",
          "name": "to",
          "type": "address"
        },
        {
          "internalType": "uint256",
          "name": "amount",
          "type": "uint256"
        }
      ],
      "name": "mint",
      "outputs": [],
      "stateMutability": "nonpayable",
      "type": "function"
    },
    {
      "inputs": [],
      "name": "name",
      "outputs": [
        {
          "internalType": "string",
          "name": "",
          "type": "string"
        }
      ],
      "stateMutability": "view",
      "type": "function"
    },
    {
      "inputs": [],
      "name": "paused",
      "outputs": [
        {
          "internalType": "bool",
          "name": "",
          "type": "bool"
        }
      ],
      "stateMutability": "view",
      "type": "function"
    },
    {
      "inputs": [
        {
          "internalType": "bytes32",
          "name": "role",
          "type": "bytes32"
        },
        {
          "internalType": "address",
          "name": "account",
          "type": "address"
        }
      ],
      "name": "renounceRole",
      "outputs": [],
      "stateMutability": "nonpayable",
      "type": "function"
    },
    {
      "inputs": [
        {
          "internalType": "bytes32",
          "name": "role",
          "type": "bytes32"
        },
        {
          "internalType": "address",
          "name": "account",
          "type": "address"
        }
      ],
      "name": "revokeRole",
      "outputs": [],
      "stateMutability": "nonpayable",
      "type": "function"
    },
    {
      "inputs": [
        {
          "internalType": "bytes4",
          "name": "interfaceId",
          "type": "bytes4"
        }
      ],
      "name": "supportsInterface",
      "outputs": [
        {
          "internalType": "bool",
          "name": "",
          "type": "bool"
        }
      ],
      "stateMutability": "view",
      "type": "function"
    },
    {
      "inputs": [],
      "name": "symbol",
      "outputs": [
        {
          "internalType": "string",
          "name": "",
          "type": "string"
        }
      ],
      "stateMutability": "view",
      "type": "function"
    },
    {
      "inputs": [],
      "name": "totalSupply",
      "outputs": [
        {
          "internalType": "uint256",
          "name": "",
          "type": "uint256"
        }
      ],
      "stateMutability": "view",
      "type": "function"
    },
    {
      "inputs": [
        {
          "internalType": "address",
          "name": "recipient",
          "type": "address"
        },
        {
          "internalType": "uint256",
          "name": "amount",
          "type": "uint256"
        }
      ],
      "name": "transfer",
      "outputs": [
        {
          "internalType": "bool",
          "name": "",
          "type": "bool"
        }
      ],
      "stateMutability": "nonpayable",
      "type": "function"
    },
    {
      "inputs": [
        {
          "internalType": "address",
          "name": "sender",
          "type": "address"
        },
        {
          "internalType": "address",
          "name": "recipient",
          "type": "address"
        },
        {
          "internalType": "uint256",
          "name": "amount",
          "type": "uint256"
        }
      ],
      "name": "transferFrom",
      "outputs": [
        {
          "internalType": "bool",
          "name": "",
          "type": "bool"
        }
      ],
      "stateMutability": "nonpayable",
      "type": "function"
    },
    {
      "inputs": [],
      "name": "unpause",
      "outputs": [],
      "stateMutability": "nonpayable",
      "type": "function"
    },
    {
      "inputs": [],
      "name": "version",
      "outputs": [
        {
          "internalType": "string",
          "name": "",
          "type": "string"
        }
      ],
      "stateMutability": "pure",
      "type": "function"
    }
  ],
  "bytecode": "0x608060405234801561001057600080fd5b5061319d806100206000396000f3fe608060405234801561001057600080fd5b50600436106101735760003560e01c806354fd4d50116100de578063a217fddf11610097578063c4d66de811610071578063c4d66de814610474578063d539139314610490578063d547741f146104ae578063dd62ed3e146104ca57610173565b8063a217fddf146103f6578063a457c2d714610414578063a9059cbb1461044457610173565b806354fd4d50146103205780635c975abb1461033e57806370a082311461035c57806379cc67901461038c57806391d14854146103a857806395d89b41146103d857610173565b80632f2ff15d116101305780632f2ff15d14610274578063313ce5671461029057806336568abe146102ae57806339509351146102ca5780633f4ba83a146102fa57806340c10f191461030457610173565b806301ffc9a71461017857806306fdde03146101a8578063095ea7b3146101c657806318160ddd146101f657806323b872dd14610214578063248a9ca314610244575b600080fd5b610192600480360381019061018d91906123ae565b6104fa565b60405161019f9190612ba9565b60405180910390f35b6101b0610574565b6040516101bd9190612bdf565b60405180910390f35b6101e060048036038101906101db919061230d565b610606565b6040516101ed9190612ba9565b60405180910390f35b6101fe610624565b60405161020b9190612e41565b60405180910390f35b61022e600480360381019061022991906122be565b61062e565b60405161023b9190612ba9565b60405180910390f35b61025e60048036038101906102599190612349565b610726565b60405161026b9190612bc4565b60405180910390f35b61028e60048036038101906102899190612372565b610746565b005b61029861076f565b6040516102a59190612e5c565b60405180910390f35b6102c860048036038101906102c39190612372565b610778565b005b6102e460048036038101906102df919061230d565b6107fb565b6040516102f19190612ba9565b60405180910390f35b6103026108a7565b005b61031e6004803603810190610319919061230d565b61090e565b005b610328610985565b6040516103359190612bdf565b60405180910390f35b6103466109c2565b6040516103539190612ba9565b60405180910390f35b61037660048036038101906103719190612259565b6109d9565b6040516103839190612e41565b60405180910390f35b6103a660048036038101906103a1919061230d565b610a22565b005b6103c260048036038101906103bd9190612372565b610aa6565b6040516103cf9190612ba9565b60405180910390f35b6103e0610b11565b6040516103ed9190612bdf565b60405180910390f35b6103fe610ba3565b60405161040b9190612bc4565b60405180910390f35b61042e6004803603810190610429919061230d565b610baa565b60405161043b9190612ba9565b60405180910390f35b61045e6004803603810190610459919061230d565b610c95565b60405161046b9190612ba9565b60405180910390f35b61048e60048036038101906104899190612259565b610cb3565b005b610498610f0d565b6040516104a59190612bc4565b60405180910390f35b6104c860048036038101906104c39190612372565b610f31565b005b6104e460048036038101906104df9190612282565b610f5a565b6040516104f19190612e41565b60405180910390f35b60007f7965db0b000000000000000000000000000000000000000000000000000000007bffffffffffffffffffffffffffffffffffffffffffffffffffffffff1916827bffffffffffffffffffffffffffffffffffffffffffffffffffffffff1916148061056d575061056c82610fe1565b5b9050919050565b6060603680546105839061306a565b80601f01602080910402602001604051908101604052809291908181526020018280546105af9061306a565b80156105fc5780601f106105d1576101008083540402835291602001916105fc565b820191906000526020600020905b8154815290600101906020018083116105df57829003601f168201915b5050505050905090565b600061061a61061361104b565b8484611053565b6001905092915050565b6000603554905090565b600061063b84848461121e565b6000603460008673ffffffffffffffffffffffffffffffffffffffff1673ffffffffffffffffffffffffffffffffffffffff168152602001908152602001600020600061068661104b565b73ffffffffffffffffffffffffffffffffffffffff1673ffffffffffffffffffffffffffffffffffffffff16815260200190815260200160002054905082811015610706576040517f08c379a00000000000000000000000000000000000000000000000000000000081526004016106fd90612d41565b60405180910390fd5b61071a8561071261104b565b858403611053565b60019150509392505050565b600060c96000838152602001908152602001600020600101549050919050565b61074f82610726565b6107608161075b61104b565b6114a2565b61076a838361153f565b505050565b60006012905090565b61078061104b565b73ffffffffffffffffffffffffffffffffffffffff168173ffffffffffffffffffffffffffffffffffffffff16146107ed576040517f08c379a00000000000000000000000000000000000000000000000000000000081526004016107e490612e01565b60405180910390fd5b6107f78282611620565b5050565b600061089d61080861104b565b84846034600061081661104b565b73ffffffffffffffffffffffffffffffffffffffff1673ffffffffffffffffffffffffffffffffffffffff16815260200190815260200160002060008873ffffffffffffffffffffffffffffffffffffffff1673ffffffffffffffffffffffffffffffffffffffff168152602001908152602001600020546108989190612e9e565b611053565b6001905092915050565b6000801b6108bc816108b761104b565b6114a2565b6108c46109c2565b610903576040517f08c379a00000000000000000000000000000000000000000000000000000000081526004016108fa90612c41565b60405180910390fd5b61090b611702565b50565b6109387f9f2df0fed2c77648de5860a4cc508cd0818c85b8b8a1ab4ceeef8d981c8956a633610aa6565b610977576040517f08c379a000000000000000000000000000000000000000000000000000000000815260040161096e90612c81565b60405180910390fd5b61098182826117a4565b5050565b60606040518060400160405280600381526020017f312e300000000000000000000000000000000000000000000000000000000000815250905090565b6000606560009054906101000a900460ff16905090565b6000603360008373ffffffffffffffffffffffffffffffffffffffff1673ffffffffffffffffffffffffffffffffffffffff168152602001908152602001600020549050919050565b6000610a3583610a3061104b565b610f5a565b905081811015610a7a576040517f08c379a0000000000000000000000000000000000000000000000000000000008152600401610a7190612d61565b60405180910390fd5b610a9783610a8661104b565b8484610a929190612f4e565b611053565b610aa18383611905565b505050565b600060c9600084815260200190815260200160002060000160008373ffffffffffffffffffffffffffffffffffffffff1673ffffffffffffffffffffffffffffffffffffffff16815260200190815260200160002060009054906101000a900460ff16905092915050565b606060378054610b209061306a565b80601f0160208091040260200160405190810160405280929190818152602001828054610b4c9061306a565b8015610b995780601f10610b6e57610100808354040283529160200191610b99565b820191906000526020600020905b815481529060010190602001808311610b7c57829003601f168201915b5050505050905090565b6000801b81565b60008060346000610bb961104b565b73ffffffffffffffffffffffffffffffffffffffff1673ffffffffffffffffffffffffffffffffffffffff16815260200190815260200160002060008573ffffffffffffffffffffffffffffffffffffffff1673ffffffffffffffffffffffffffffffffffffffff16815260200190815260200160002054905082811015610c76576040517f08c379a0000000000000000000000000000000000000000000000000000000008152600401610c6d90612de1565b60405180910390fd5b610c8a610c8161104b565b85858403611053565b600191505092915050565b6000610ca9610ca261104b565b848461121e565b6001905092915050565b600060019054906101000a900460ff1680610cd9575060008054906101000a900460ff16155b610d18576040517f08c379a0000000000000000000000000000000000000000000000000000000008152600401610d0f90612d01565b60405180910390fd5b60008060019054906101000a900460ff161590508015610d68576001600060016101000a81548160ff02191690831515021790555060016000806101000a81548160ff0219169083151502179055505b610d706109c2565b15610db0576040517f08c379a0000000000000000000000000000000000000000000000000000000008152600401610da790612ce1565b60405180910390fd5b600073ffffffffffffffffffffffffffffffffffffffff168273ffffffffffffffffffffffffffffffffffffffff161415610e20576040517f08c379a0000000000000000000000000000000000000000000000000000000008152600401610e1790612d21565b60405180910390fd5b610e946040518060400160405280600781526020017f506f6c6b614578000000000000000000000000000000000000000000000000008152506040518060400160405280600481526020017f504b455800000000000000000000000000000000000000000000000000000000815250611ade565b610ea9826a52b7d2dcc80cd2e40000006117a4565b610eb66000801b83611bcb565b610ee07f9f2df0fed2c77648de5860a4cc508cd0818c85b8b8a1ab4ceeef8d981c8956a683611bcb565b610ee8611bd9565b8015610f095760008060016101000a81548160ff0219169083151502179055505b5050565b7f9f2df0fed2c77648de5860a4cc508cd0818c85b8b8a1ab4ceeef8d981c8956a681565b610f3a82610726565b610f4b81610f4661104b565b6114a2565b610f558383611620565b505050565b6000603460008473ffffffffffffffffffffffffffffffffffffffff1673ffffffffffffffffffffffffffffffffffffffff16815260200190815260200160002060008373ffffffffffffffffffffffffffffffffffffffff1673ffffffffffffffffffffffffffffffffffffffff16815260200190815260200160002054905092915050565b60007f01ffc9a7000000000000000000000000000000000000000000000000000000007bffffffffffffffffffffffffffffffffffffffffffffffffffffffff1916827bffffffffffffffffffffffffffffffffffffffffffffffffffffffff1916149050919050565b600033905090565b600073ffffffffffffffffffffffffffffffffffffffff168373ffffffffffffffffffffffffffffffffffffffff1614156110c3576040517f08c379a00000000000000000000000000000000000000000000000000000000081526004016110ba90612dc1565b60405180910390fd5b600073ffffffffffffffffffffffffffffffffffffffff168273ffffffffffffffffffffffffffffffffffffffff161415611133576040517f08c379a000000000000000000000000000000000000000000000000000000000815260040161112a90612ca1565b60405180910390fd5b80603460008573ffffffffffffffffffffffffffffffffffffffff1673ffffffffffffffffffffffffffffffffffffffff16815260200190815260200160002060008473ffffffffffffffffffffffffffffffffffffffff1673ffffffffffffffffffffffffffffffffffffffff168152602001908152602001600020819055508173ffffffffffffffffffffffffffffffffffffffff168373ffffffffffffffffffffffffffffffffffffffff167f8c5be1e5ebec7d5bd14f71427d1e84f3dd0314c0f7b2291e5b200ac8c7c3b925836040516112119190612e41565b60405180910390a3505050565b600073ffffffffffffffffffffffffffffffffffffffff168373ffffffffffffffffffffffffffffffffffffffff16141561128e576040517f08c379a000000000000000000000000000000000000000000000000000000000815260040161128590612da1565b60405180910390fd5b600073ffffffffffffffffffffffffffffffffffffffff168273ffffffffffffffffffffffffffffffffffffffff1614156112fe576040517f08c379a00000000000000000000000000000000000000000000000000000000081526004016112f590612c21565b60405180910390fd5b611309838383611c7c565b6000603360008573ffffffffffffffffffffffffffffffffffffffff1673ffffffffffffffffffffffffffffffffffffffff16815260200190815260200160002054905081811015611390576040517f08c379a000000000000000000000000000000000000000000000000000000000815260040161138790612cc1565b60405180910390fd5b818103603360008673ffffffffffffffffffffffffffffffffffffffff1673ffffffffffffffffffffffffffffffffffffffff1681526020019081526020016000208190555081603360008573ffffffffffffffffffffffffffffffffffffffff1673ffffffffffffffffffffffffffffffffffffffff16815260200190815260200160002060008282546114259190612e9e565b925050819055508273ffffffffffffffffffffffffffffffffffffffff168473ffffffffffffffffffffffffffffffffffffffff167fddf252ad1be2c89b69c2b068fc378daa952ba7f163c4a11628f55a4df523b3ef846040516114899190612e41565b60405180910390a361149c848484611c81565b50505050565b6114ac8282610aa6565b61153b576114d18173ffffffffffffffffffffffffffffffffffffffff166014611c86565b6114df8360001c6020611c86565b6040516020016114f0929190612b54565b6040516020818303038152906040526040517f08c379a00000000000000000000000000000000000000000000000000000000081526004016115329190612bdf565b60405180910390fd5b5050565b6115498282610aa6565b61161c57600160c9600084815260200190815260200160002060000160008373ffffffffffffffffffffffffffffffffffffffff1673ffffffffffffffffffffffffffffffffffffffff16815260200190815260200160002060006101000a81548160ff0219169083151502179055506115c161104b565b73ffffffffffffffffffffffffffffffffffffffff168173ffffffffffffffffffffffffffffffffffffffff16837f2f8788117e7eff1d82e926ec794901d17c78024a50270940304540a733656f0d60405160405180910390a45b5050565b61162a8282610aa6565b156116fe57600060c9600084815260200190815260200160002060000160008373ffffffffffffffffffffffffffffffffffffffff1673ffffffffffffffffffffffffffffffffffffffff16815260200190815260200160002060006101000a81548160ff0219169083151502179055506116a361104b565b73ffffffffffffffffffffffffffffffffffffffff168173ffffffffffffffffffffffffffffffffffffffff16837ff6391f5c32d9c69d2a47ea670b442974b53935d1edc7fd64eb21e047a839171b60405160405180910390a45b5050565b61170a6109c2565b611749576040517f08c379a000000000000000000000000000000000000000000000000000000000815260040161174090612c41565b60405180910390fd5b6000606560006101000a81548160ff0219169083151502179055507f5db9ee0a495bf2e6ff9c91a7834c1ba4fdd244a5e8aa4e537bd38aeae4b073aa61178d61104b565b60405161179a9190612b8e565b60405180910390a1565b600073ffffffffffffffffffffffffffffffffffffffff168273ffffffffffffffffffffffffffffffffffffffff161415611814576040517f08c379a000000000000000000000000000000000000000000000000000000000815260040161180b90612e21565b60405180910390fd5b61182060008383611c7c565b80603560008282546118329190612e9e565b9250508190555080603360008473ffffffffffffffffffffffffffffffffffffffff1673ffffffffffffffffffffffffffffffffffffffff16815260200190815260200160002060008282546118889190612e9e565b925050819055508173ffffffffffffffffffffffffffffffffffffffff16600073ffffffffffffffffffffffffffffffffffffffff167fddf252ad1be2c89b69c2b068fc378daa952ba7f163c4a11628f55a4df523b3ef836040516118ed9190612e41565b60405180910390a361190160008383611c81565b5050565b600073ffffffffffffffffffffffffffffffffffffffff168273ffffffffffffffffffffffffffffffffffffffff161415611975576040517f08c379a000000000000000000000000000000000000000000000000000000000815260040161196c90612d81565b60405180910390fd5b61198182600083611c7c565b6000603360008473ffffffffffffffffffffffffffffffffffffffff1673ffffffffffffffffffffffffffffffffffffffff16815260200190815260200160002054905081811015611a08576040517f08c379a00000000000000000000000000000000000000000000000000000000081526004016119ff90612c61565b60405180910390fd5b818103603360008573ffffffffffffffffffffffffffffffffffffffff1673ffffffffffffffffffffffffffffffffffffffff168152602001908152602001600020819055508160356000828254611a609190612f4e565b92505081905550600073ffffffffffffffffffffffffffffffffffffffff168373ffffffffffffffffffffffffffffffffffffffff167fddf252ad1be2c89b69c2b068fc378daa952ba7f163c4a11628f55a4df523b3ef84604051611ac59190612e41565b60405180910390a3611ad983600084611c81565b505050565b600060019054906101000a900460ff1680611b04575060008054906101000a900460ff16155b611b43576040517f08c379a0000000000000000000000000000000000000000000000000000000008152600401611b3a90612d01565b60405180910390fd5b60008060019054906101000a900460ff161590508015611b93576001600060016101000a81548160ff02191690831515021790555060016000806101000a81548160ff0219169083151502179055505b611b9b611f80565b611ba58383612059565b8015611bc65760008060016101000a81548160ff0219169083151502179055505b505050565b611bd5828261153f565b5050565b611be16109c2565b15611c21576040517f08c379a0000000000000000000000000000000000000000000000000000000008152600401611c1890612ce1565b60405180910390fd5b6001606560006101000a81548160ff0219169083151502179055507f62e78cea01bee320cd4e420270b5ea74000d11b0c9f74754ebdbfc544b05a258611c6561104b565b604051611c729190612b8e565b60405180910390a1565b505050565b505050565b606060006002836002611c999190612ef4565b611ca39190612e9e565b67ffffffffffffffff811115611ce2577f4e487b7100000000000000000000000000000000000000000000000000000000600052604160045260246000fd5b6040519080825280601f01601f191660200182016040528015611d145781602001600182028036833780820191505090505b5090507f300000000000000000000000000000000000000000000000000000000000000081600081518110611d72577f4e487b7100000000000000000000000000000000000000000000000000000000600052603260045260246000fd5b60200101907effffffffffffffffffffffffffffffffffffffffffffffffffffffffffffff1916908160001a9053507f780000000000000000000000000000000000000000000000000000000000000081600181518110611dfc577f4e487b7100000000000000000000000000000000000000000000000000000000600052603260045260246000fd5b60200101907effffffffffffffffffffffffffffffffffffffffffffffffffffffffffffff1916908160001a90535060006001846002611e3c9190612ef4565b611e469190612e9e565b90505b6001811115611f32577f3031323334353637383961626364656600000000000000000000000000000000600f861660108110611eae577f4e487b7100000000000000000000000000000000000000000000000000000000600052603260045260246000fd5b1a60f81b828281518110611eeb577f4e487b7100000000000000000000000000000000000000000000000000000000600052603260045260246000fd5b60200101907effffffffffffffffffffffffffffffffffffffffffffffffffffffffffffff1916908160001a905350600485901c945080611f2b90613040565b9050611e49565b5060008414611f76576040517f08c379a0000000000000000000000000000000000000000000000000000000008152600401611f6d90612c01565b60405180910390fd5b8091505092915050565b600060019054906101000a900460ff1680611fa6575060008054906101000a900460ff16155b611fe5576040517f08c379a0000000000000000000000000000000000000000000000000000000008152600401611fdc90612d01565b60405180910390fd5b60008060019054906101000a900460ff161590508015612035576001600060016101000a81548160ff02191690831515021790555060016000806101000a81548160ff0219169083151502179055505b80156120565760008060016101000a81548160ff0219169083151502179055505b50565b600060019054906101000a900460ff168061207f575060008054906101000a900460ff16155b6120be576040517f08c379a00000000000000000000000000000000000000000000000000000000081526004016120b590612d01565b60405180910390fd5b60008060019054906101000a900460ff16159050801561210e576001600060016101000a81548160ff02191690831515021790555060016000806101000a81548160ff0219169083151502179055505b8260369080519060200190612124929190612162565b50816037908051906020019061213b929190612162565b50801561215d5760008060016101000a81548160ff0219169083151502179055505b505050565b82805461216e9061306a565b90600052602060002090601f01602090048101928261219057600085556121d7565b82601f106121a957805160ff19168380011785556121d7565b828001600101855582156121d7579182015b828111156121d65782518255916020019190600101906121bb565b5b5090506121e491906121e8565b5090565b5b808211156122015760008160009055506001016121e9565b5090565b6000813590506122148161310b565b92915050565b60008135905061222981613122565b92915050565b60008135905061223e81613139565b92915050565b60008135905061225381613150565b92915050565b60006020828403121561226b57600080fd5b600061227984828501612205565b91505092915050565b6000806040838503121561229557600080fd5b60006122a385828601612205565b92505060206122b485828601612205565b9150509250929050565b6000806000606084860312156122d357600080fd5b60006122e186828701612205565b93505060206122f286828701612205565b925050604061230386828701612244565b9150509250925092565b6000806040838503121561232057600080fd5b600061232e85828601612205565b925050602061233f85828601612244565b9150509250929050565b60006020828403121561235b57600080fd5b60006123698482850161221a565b91505092915050565b6000806040838503121561238557600080fd5b60006123938582860161221a565b92505060206123a485828601612205565b9150509250929050565b6000602082840312156123c057600080fd5b60006123ce8482850161222f565b91505092915050565b6123e081612f82565b82525050565b6123ef81612f94565b82525050565b6123fe81612fa0565b82525050565b600061240f82612e77565b6124198185612e82565b935061242981856020860161300d565b612432816130fa565b840191505092915050565b600061244882612e77565b6124528185612e93565b935061246281856020860161300d565b80840191505092915050565b600061247b602083612e82565b91507f537472696e67733a20686578206c656e67746820696e73756666696369656e746000830152602082019050919050565b60006124bb602383612e82565b91507f45524332303a207472616e7366657220746f20746865207a65726f206164647260008301527f65737300000000000000000000000000000000000000000000000000000000006020830152604082019050919050565b6000612521601483612e82565b91507f5061757361626c653a206e6f74207061757365640000000000000000000000006000830152602082019050919050565b6000612561602283612e82565b91507f45524332303a206275726e20616d6f756e7420657863656564732062616c616e60008301527f63650000000000000000000000000000000000000000000000000000000000006020830152604082019050919050565b60006125c7601d83612e82565b91507f4d657465723a2043616c6c6572206973206e6f742061206d696e7465720000006000830152602082019050919050565b6000612607602283612e82565b91507f45524332303a20617070726f766520746f20746865207a65726f20616464726560008301527f73730000000000000000000000000000000000000000000000000000000000006020830152604082019050919050565b600061266d602683612e82565b91507f45524332303a207472616e7366657220616d6f756e742065786365656473206260008301527f616c616e636500000000000000000000000000000000000000000000000000006020830152604082019050919050565b60006126d3601083612e82565b91507f5061757361626c653a20706175736564000000000000000000000000000000006000830152602082019050919050565b6000612713602e83612e82565b91507f496e697469616c697a61626c653a20636f6e747261637420697320616c72656160008301527f647920696e697469616c697a65640000000000000000000000000000000000006020830152604082019050919050565b6000612779601e83612e82565b91507f504b45583a3a636f6e7374727563746f723a5a65726f206164647265737300006000830152602082019050919050565b60006127b9602883612e82565b91507f45524332303a207472616e7366657220616d6f756e742065786365656473206160008301527f6c6c6f77616e63650000000000000000000000000000000000000000000000006020830152604082019050919050565b600061281f602483612e82565b91507f45524332303a206275726e20616d6f756e74206578636565647320616c6c6f7760008301527f616e6365000000000000000000000000000000000000000000000000000000006020830152604082019050919050565b6000612885602183612e82565b91507f45524332303a206275726e2066726f6d20746865207a65726f2061646472657360008301527f73000000000000000000000000000000000000000000000000000000000000006020830152604082019050919050565b60006128eb602583612e82565b91507f45524332303a207472616e736665722066726f6d20746865207a65726f20616460008301527f64726573730000000000000000000000000000000000000000000000000000006020830152604082019050919050565b6000612951602483612e82565b91507f45524332303a20617070726f76652066726f6d20746865207a65726f2061646460008301527f72657373000000000000000000000000000000000000000000000000000000006020830152604082019050919050565b60006129b7601783612e93565b91507f416363657373436f6e74726f6c3a206163636f756e74200000000000000000006000830152601782019050919050565b60006129f7602583612e82565b91507f45524332303a2064656372656173656420616c6c6f77616e63652062656c6f7760008301527f207a65726f0000000000000000000000000000000000000000000000000000006020830152604082019050919050565b6000612a5d601183612e93565b91507f206973206d697373696e6720726f6c65200000000000000000000000000000006000830152601182019050919050565b6000612a9d602f83612e82565b91507f416363657373436f6e74726f6c3a2063616e206f6e6c792072656e6f756e636560008301527f20726f6c657320666f722073656c6600000000000000000000000000000000006020830152604082019050919050565b6000612b03601f83612e82565b91507f45524332303a206d696e7420746f20746865207a65726f2061646472657373006000830152602082019050919050565b612b3f81612ff6565b82525050565b612b4e81613000565b82525050565b6000612b5f826129aa565b9150612b6b828561243d565b9150612b7682612a50565b9150612b82828461243d565b91508190509392505050565b6000602082019050612ba360008301846123d7565b92915050565b6000602082019050612bbe60008301846123e6565b92915050565b6000602082019050612bd960008301846123f5565b92915050565b60006020820190508181036000830152612bf98184612404565b905092915050565b60006020820190508181036000830152612c1a8161246e565b9050919050565b60006020820190508181036000830152612c3a816124ae565b9050919050565b60006020820190508181036000830152612c5a81612514565b9050919050565b60006020820190508181036000830152612c7a81612554565b9050919050565b60006020820190508181036000830152612c9a816125ba565b9050919050565b60006020820190508181036000830152612cba816125fa565b9050919050565b60006020820190508181036000830152612cda81612660565b9050919050565b60006020820190508181036000830152612cfa816126c6565b9050919050565b60006020820190508181036000830152612d1a81612706565b9050919050565b60006020820190508181036000830152612d3a8161276c565b9050919050565b60006020820190508181036000830152612d5a816127ac565b9050919050565b60006020820190508181036000830152612d7a81612812565b9050919050565b60006020820190508181036000830152612d9a81612878565b9050919050565b60006020820190508181036000830152612dba816128de565b9050919050565b60006020820190508181036000830152612dda81612944565b9050919050565b60006020820190508181036000830152612dfa816129ea565b9050919050565b60006020820190508181036000830152612e1a81612a90565b9050919050565b60006020820190508181036000830152612e3a81612af6565b9050919050565b6000602082019050612e566000830184612b36565b92915050565b6000602082019050612e716000830184612b45565b92915050565b600081519050919050565b600082825260208201905092915050565b600081905092915050565b6000612ea982612ff6565b9150612eb483612ff6565b9250827fffffffffffffffffffffffffffffffffffffffffffffffffffffffffffffffff03821115612ee957612ee861309c565b5b828201905092915050565b6000612eff82612ff6565b9150612f0a83612ff6565b9250817fffffffffffffffffffffffffffffffffffffffffffffffffffffffffffffffff0483118215151615612f4357612f4261309c565b5b828202905092915050565b6000612f5982612ff6565b9150612f6483612ff6565b925082821015612f7757612f7661309c565b5b828203905092915050565b6000612f8d82612fd6565b9050919050565b60008115159050919050565b6000819050919050565b60007fffffffff0000000000000000000000000000000000000000000000000000000082169050919050565b600073ffffffffffffffffffffffffffffffffffffffff82169050919050565b6000819050919050565b600060ff82169050919050565b60005b8381101561302b578082015181840152602081019050613010565b8381111561303a576000848401525b50505050565b600061304b82612ff6565b9150600082141561305f5761305e61309c565b5b600182039050919050565b6000600282049050600182168061308257607f821691505b60208210811415613096576130956130cb565b5b50919050565b7f4e487b7100000000000000000000000000000000000000000000000000000000600052601160045260246000fd5b7f4e487b7100000000000000000000000000000000000000000000000000000000600052602260045260246000fd5b6000601f19601f8301169050919050565b61311481612f82565b811461311f57600080fd5b50565b61312b81612fa0565b811461313657600080fd5b50565b61314281612faa565b811461314d57600080fd5b50565b61315981612ff6565b811461316457600080fd5b5056fea26469706673582212207fa0a53fbf98ea7aac3fc38f256421ef15f8100f8986fba86edbafbaf2b0929964736f6c63430008000033",
  "linkReferences": {},
  "deployedLinkReferences": {}
}