{
  "_format": "hh-sol-artifact-1",
  "contractName": "PkexStakingRewards",
  "sourceName": "contracts/Reward.sol",
  "abi": [
    {
      "inputs": [
        {
          "internalType": "address",
          "name": "_distributor",
          "type": "address"
        },
        {
          "internalType": "address",
          "name": "_pkex",
          "type": "address"
        },
        {
          "internalType": "address",
          "name": "_pkexUsdcLp",
          "type": "address"
        },
        {
          "internalType": "uint256",
          "name": "_duration",
          "type": "uint256"
        }
      ],
      "stateMutability": "nonpayable",
      "type": "constructor"
    },
    {
      "anonymous": false,
      "inputs": [
        {
          "indexed": true,
          "internalType": "address",
          "name": "user",
          "type": "address"
        },
        {
          "indexed": false,
          "internalType": "uint256",
          "name": "amount",
          "type": "uint256"
        }
      ],
      "name": "EmergencyWithdraw",
      "type": "event"
    },
    {
      "anonymous": false,
      "inputs": [
        {
          "indexed": true,
          "internalType": "address",
          "name": "tokenAddress",
          "type": "address"
        },
        {
          "indexed": true,
          "internalType": "address",
          "name": "to",
          "type": "address"
        },
        {
          "indexed": false,
          "internalType": "uint256",
          "name": "amount",
          "type": "uint256"
        }
      ],
      "name": "Recovered",
      "type": "event"
    },
    {
      "anonymous": false,
      "inputs": [
        {
          "indexed": false,
          "internalType": "uint256",
          "name": "reward",
          "type": "uint256"
        }
      ],
      "name": "RewardAdded",
      "type": "event"
    },
    {
      "anonymous": false,
      "inputs": [
        {
          "indexed": true,
          "internalType": "address",
          "name": "user",
          "type": "address"
        },
        {
          "indexed": false,
          "internalType": "uint256",
          "name": "reward",
          "type": "uint256"
        }
      ],
      "name": "RewardPaid",
      "type": "event"
    },
    {
      "anonymous": false,
      "inputs": [
        {
          "indexed": true,
          "internalType": "address",
          "name": "user",
          "type": "address"
        },
        {
          "indexed": false,
          "internalType": "uint256",
          "name": "amount",
          "type": "uint256"
        }
      ],
      "name": "Staked",
      "type": "event"
    },
    {
      "anonymous": false,
      "inputs": [
        {
          "indexed": false,
          "internalType": "uint256",
          "name": "oldValue",
          "type": "uint256"
        },
        {
          "indexed": false,
          "internalType": "uint256",
          "name": "newValue",
          "type": "uint256"
        }
      ],
      "name": "UnstakePeriodUpdated",
      "type": "event"
    },
    {
      "anonymous": false,
      "inputs": [
        {
          "indexed": true,
          "internalType": "address",
          "name": "user",
          "type": "address"
        },
        {
          "indexed": false,
          "internalType": "uint256",
          "name": "amount",
          "type": "uint256"
        }
      ],
      "name": "Unstaked",
      "type": "event"
    },
    {
      "inputs": [
        {
          "internalType": "address",
          "name": "account",
          "type": "address"
        }
      ],
      "name": "balanceOf",
      "outputs": [
        {
          "internalType": "uint256",
          "name": "",
          "type": "uint256"
        }
      ],
      "stateMutability": "view",
      "type": "function"
    },
    {
      "inputs": [],
      "name": "claim",
      "outputs": [],
      "stateMutability": "nonpayable",
      "type": "function"
    },
    {
      "inputs": [],
      "name": "emergencyWithdraw",
      "outputs": [],
      "stateMutability": "nonpayable",
      "type": "function"
    },
    {
      "inputs": [],
      "name": "getRewardForDuration",
      "outputs": [
        {
          "internalType": "uint256",
          "name": "",
          "type": "uint256"
        }
      ],
      "stateMutability": "view",
      "type": "function"
    },
    {
      "inputs": [],
      "name": "getTotalRewarded",
      "outputs": [
        {
          "internalType": "uint256",
          "name": "totalRewarded",
          "type": "uint256"
        }
      ],
      "stateMutability": "view",
      "type": "function"
    },
    {
      "inputs": [],
      "name": "lastTimeRewardApplicable",
      "outputs": [
        {
          "internalType": "uint256",
          "name": "",
          "type": "uint256"
        }
      ],
      "stateMutability": "view",
      "type": "function"
    },
    {
      "inputs": [],
      "name": "lastUpdateTime",
      "outputs": [
        {
          "internalType": "uint256",
          "name": "",
          "type": "uint256"
        }
      ],
      "stateMutability": "view",
      "type": "function"
    },
    {
      "inputs": [],
      "name": "myStakeInfo",
      "outputs": [
        {
          "internalType": "uint256",
          "name": "_staked",
          "type": "uint256"
        },
        {
          "internalType": "uint256",
          "name": "_earned",
          "type": "uint256"
        },
        {
          "internalType": "uint256",
          "name": "_locked",
          "type": "uint256"
        }
      ],
      "stateMutability": "view",
      "type": "function"
    },
    {
      "inputs": [
        {
          "internalType": "uint256",
          "name": "reward",
          "type": "uint256"
        }
      ],
      "name": "notifyRewardAmount",
      "outputs": [],
      "stateMutability": "nonpayable",
      "type": "function"
    },
    {
      "inputs": [],
      "name": "periodFinish",
      "outputs": [
        {
          "internalType": "uint256",
          "name": "",
          "type": "uint256"
        }
      ],
      "stateMutability": "view",
      "type": "function"
    },
    {
      "inputs": [
        {
          "internalType": "uint256",
          "name": "",
          "type": "uint256"
        }
      ],
      "name": "pools",
      "outputs": [
        {
          "internalType": "uint256",
          "name": "from",
          "type": "uint256"
        },
        {
          "internalType": "uint256",
          "name": "to",
          "type": "uint256"
        },
        {
          "internalType": "uint256",
          "name": "totalStaked",
          "type": "uint256"
        },
        {
          "internalType": "uint256",
          "name": "totalAddresses",
          "type": "uint256"
        },
        {
          "internalType": "uint256",
          "name": "totalRewards",
          "type": "uint256"
        },
        {
          "internalType": "uint256",
          "name": "rewardRate",
          "type": "uint256"
        }
      ],
      "stateMutability": "view",
      "type": "function"
    },
    {
      "inputs": [
        {
          "internalType": "address",
          "name": "tokenAddress",
          "type": "address"
        },
        {
          "internalType": "address",
          "name": "to",
          "type": "address"
        },
        {
          "internalType": "uint256",
          "name": "tokenAmount",
          "type": "uint256"
        }
      ],
      "name": "recoverERC20",
      "outputs": [],
      "stateMutability": "nonpayable",
      "type": "function"
    },
    {
      "inputs": [],
      "name": "rewardIndex",
      "outputs": [
        {
          "internalType": "uint256",
          "name": "",
          "type": "uint256"
        }
      ],
      "stateMutability": "view",
      "type": "function"
    },
    {
      "inputs": [],
      "name": "rewardPerTokenStored",
      "outputs": [
        {
          "internalType": "uint256",
          "name": "",
          "type": "uint256"
        }
      ],
      "stateMutability": "view",
      "type": "function"
    },
    {
      "inputs": [],
      "name": "rewardRate",
      "outputs": [
        {
          "internalType": "uint256",
          "name": "",
          "type": "uint256"
        }
      ],
      "stateMutability": "view",
      "type": "function"
    },
    {
      "inputs": [
        {
          "internalType": "address",
          "name": "",
          "type": "address"
        }
      ],
      "name": "rewards",
      "outputs": [
        {
          "internalType": "uint256",
          "name": "",
          "type": "uint256"
        }
      ],
      "stateMutability": "view",
      "type": "function"
    },
    {
      "inputs": [],
      "name": "rewardsDistribution",
      "outputs": [
        {
          "internalType": "address",
          "name": "",
          "type": "address"
        }
      ],
      "stateMutability": "view",
      "type": "function"
    },
    {
      "inputs": [],
      "name": "rewardsDuration",
      "outputs": [
        {
          "internalType": "uint256",
          "name": "",
          "type": "uint256"
        }
      ],
      "stateMutability": "view",
      "type": "function"
    },
    {
      "inputs": [],
      "name": "rewardsToken",
      "outputs": [
        {
          "internalType": "contract IERC20",
          "name": "",
          "type": "address"
        }
      ],
      "stateMutability": "view",
      "type": "function"
    },
    {
      "inputs": [
        {
          "internalType": "uint256",
          "name": "_period",
          "type": "uint256"
        }
      ],
      "name": "setUnstakePeriod",
      "outputs": [],
      "stateMutability": "nonpayable",
      "type": "function"
    },
    {
      "inputs": [
        {
          "internalType": "uint256",
          "name": "amount",
          "type": "uint256"
        }
      ],
      "name": "stake",
      "outputs": [],
      "stateMutability": "nonpayable",
      "type": "function"
    },
    {
      "inputs": [],
      "name": "stakingToken",
      "outputs": [
        {
          "internalType": "contract IERC20",
          "name": "",
          "type": "address"
        }
      ],
      "stateMutability": "view",
      "type": "function"
    },
    {
      "inputs": [],
      "name": "totalSupply",
      "outputs": [
        {
          "internalType": "uint256",
          "name": "",
          "type": "uint256"
        }
      ],
      "stateMutability": "view",
      "type": "function"
    },
    {
      "inputs": [
        {
          "internalType": "uint256",
          "name": "amount",
          "type": "uint256"
        }
      ],
      "name": "unstake",
      "outputs": [],
      "stateMutability": "nonpayable",
      "type": "function"
    },
    {
      "inputs": [],
      "name": "unstakeAll",
      "outputs": [],
      "stateMutability": "nonpayable",
      "type": "function"
    },
    {
      "inputs": [
        {
          "internalType": "address",
          "name": "",
          "type": "address"
        }
      ],
      "name": "unstakeTime",
      "outputs": [
        {
          "internalType": "uint256",
          "name": "",
          "type": "uint256"
        }
      ],
      "stateMutability": "view",
      "type": "function"
    },
    {
      "inputs": [],
      "name": "unstakingPeriod",
      "outputs": [
        {
          "internalType": "uint256",
          "name": "",
          "type": "uint256"
        }
      ],
      "stateMutability": "view",
      "type": "function"
    },
    {
      "inputs": [
        {
          "internalType": "address",
          "name": "",
          "type": "address"
        }
      ],
      "name": "userRewardPerTokenPaid",
      "outputs": [
        {
          "internalType": "uint256",
          "name": "",
          "type": "uint256"
        }
      ],
      "stateMutability": "view",
      "type": "function"
    }
  ],
  "bytecode": "0x608060405260006004556000600555620697806009556000600a556000600b553480156200002c57600080fd5b50604051620038fa380380620038fa833981810160405281019062000052919062000301565b8383838360018081905550600073ffffffffffffffffffffffffffffffffffffffff168473ffffffffffffffffffffffffffffffffffffffff161415620000d0576040517f08c379a0000000000000000000000000000000000000000000000000000000008152600401620000c79062000475565b60405180910390fd5b600073ffffffffffffffffffffffffffffffffffffffff168373ffffffffffffffffffffffffffffffffffffffff16141562000143576040517f08c379a00000000000000000000000000000000000000000000000000000000081526004016200013a9062000497565b60405180910390fd5b600073ffffffffffffffffffffffffffffffffffffffff168273ffffffffffffffffffffffffffffffffffffffff161415620001b6576040517f08c379a0000000000000000000000000000000000000000000000000000000008152600401620001ad90620004b9565b60405180910390fd5b603c8111620001fc576040517f08c379a0000000000000000000000000000000000000000000000000000000008152600401620001f390620004db565b60405180910390fd5b82600260006101000a81548173ffffffffffffffffffffffffffffffffffffffff021916908373ffffffffffffffffffffffffffffffffffffffff16021790555081600360006101000a81548173ffffffffffffffffffffffffffffffffffffffff021916908373ffffffffffffffffffffffffffffffffffffffff160217905550836000806101000a81548173ffffffffffffffffffffffffffffffffffffffff021916908373ffffffffffffffffffffffffffffffffffffffff16021790555080600681905550505050505050505062000580565b600081519050620002e4816200054c565b92915050565b600081519050620002fb8162000566565b92915050565b600080600080608085870312156200031857600080fd5b60006200032887828801620002d3565b94505060206200033b87828801620002d3565b93505060406200034e87828801620002d3565b92505060606200036187828801620002ea565b91505092959194509250565b60006200037c601c83620004fd565b91507f496e76616c696420646973747269627574696f6e2061646472657373000000006000830152602082019050919050565b6000620003be601d83620004fd565b91507f496e76616c6964207265776172647320746f6b656e20616464726573730000006000830152602082019050919050565b600062000400601d83620004fd565b91507f496e76616c6964207374616b696e6720746f6b656e20616464726573730000006000830152602082019050919050565b600062000442601883620004fd565b91507f496e76616c69642072657761726473206475726174696f6e00000000000000006000830152602082019050919050565b6000602082019050818103600083015262000490816200036d565b9050919050565b60006020820190508181036000830152620004b281620003af565b9050919050565b60006020820190508181036000830152620004d481620003f1565b9050919050565b60006020820190508181036000830152620004f68162000433565b9050919050565b600082825260208201905092915050565b60006200051b8262000522565b9050919050565b600073ffffffffffffffffffffffffffffffffffffffff82169050919050565b6000819050919050565b62000557816200050e565b81146200056357600080fd5b50565b620005718162000542565b81146200057d57600080fd5b50565b61336a80620005906000396000f3fe608060405234801561001057600080fd5b50600436106101c45760003560e01c80637b0a47ee116100f9578063d1af0c7d11610097578063e9ee2fa911610071578063e9ee2fa9146104b2578063ebe2b12b146104d0578063f21c783b146104ee578063f220b79b1461050c576101c4565b8063d1af0c7d1461046c578063db2e21bc1461048a578063df136d6514610494576101c4565b8063a694fc3a116100d3578063a694fc3a146103e1578063ac4afa38146103fd578063c8f33c9114610432578063c97a184f14610450576101c4565b80637b0a47ee1461037557806380faa57d146103935780638b876347146103b1576101c4565b806335322f37116101665780633fc6df6e116101405780633fc6df6e146102ff5780634e71d92d1461031d57806370a082311461032757806372f702f314610357576101c4565b806335322f37146102bb578063386a9525146102c55780633c6b16ab146102e3576101c4565b806318160ddd116101a257806318160ddd146102335780631c1f78eb146102515780632ac1aa351461026f5780632e17de781461029f576101c4565b80630700037d146101c95780630e5ee5ee146101f95780631171bda914610217575b600080fd5b6101e360048036038101906101de9190612827565b61052c565b6040516101f09190612fbe565b60405180910390f35b610201610544565b60405161020e9190612fbe565b60405180910390f35b610231600480360381019061022c9190612850565b610657565b005b61023b61090c565b6040516102489190612fbe565b60405180910390f35b610259610916565b6040516102669190612fbe565b60405180910390f35b61028960048036038101906102849190612827565b610934565b6040516102969190612fbe565b60405180910390f35b6102b960048036038101906102b491906128c8565b61094c565b005b6102c3610df9565b005b6102cd610e43565b6040516102da9190612fbe565b60405180910390f35b6102fd60048036038101906102f891906128c8565b610e49565b005b610307611441565b6040516103149190612d86565b60405180910390f35b610325611465565b005b610341600480360381019061033c9190612827565b611772565b60405161034e9190612fbe565b60405180910390f35b61035f6117bb565b60405161036c9190612e01565b60405180910390f35b61037d6117e1565b60405161038a9190612fbe565b60405180910390f35b61039b6117e7565b6040516103a89190612fbe565b60405180910390f35b6103cb60048036038101906103c69190612827565b6117fa565b6040516103d89190612fbe565b60405180910390f35b6103fb60048036038101906103f691906128c8565b611812565b005b610417600480360381019061041291906128c8565b611b81565b60405161042996959493929190613039565b60405180910390f35b61043a611bbd565b6040516104479190612fbe565b60405180910390f35b61046a600480360381019061046591906128c8565b611bc3565b005b610474611c9c565b6040516104819190612e01565b60405180910390f35b610492611cc2565b005b61049c611f5d565b6040516104a99190612fbe565b60405180910390f35b6104ba611f63565b6040516104c79190612fbe565b60405180910390f35b6104d8611f69565b6040516104e59190612fbe565b60405180910390f35b6104f6611f6f565b6040516105039190612fbe565b60405180910390f35b610514611f75565b60405161052393929190613002565b60405180910390f35b600d6020528060005260406000206000915090505481565b600080600190505b600b548111610653576000600f60008381526020019081526020016000206040518060c00160405290816000820154815260200160018201548152602001600282015481526020016003820154815260200160048201548152602001600582015481525050905042816000015111156105c55750610653565b428160200151116105ef576105e781608001518461200e90919063ffffffff16565b925050610638565b600061061e61060b83600001514261202490919063ffffffff16565b8360a0015161203a90919063ffffffff16565b9050610633818561200e90919063ffffffff16565b935050505b61064c60018261200e90919063ffffffff16565b905061054c565b5090565b60008054906101000a900473ffffffffffffffffffffffffffffffffffffffff1673ffffffffffffffffffffffffffffffffffffffff163373ffffffffffffffffffffffffffffffffffffffff16146106e5576040517f08c379a00000000000000000000000000000000000000000000000000000000081526004016106dc90612efe565b60405180910390fd5b600073ffffffffffffffffffffffffffffffffffffffff168373ffffffffffffffffffffffffffffffffffffffff161415610755576040517f08c379a000000000000000000000000000000000000000000000000000000000815260040161074c90612ede565b60405180910390fd5b600360009054906101000a900473ffffffffffffffffffffffffffffffffffffffff1673ffffffffffffffffffffffffffffffffffffffff168373ffffffffffffffffffffffffffffffffffffffff1614156107e6576040517f08c379a00000000000000000000000000000000000000000000000000000000081526004016107dd90612f7e565b60405180910390fd5b600260009054906101000a900473ffffffffffffffffffffffffffffffffffffffff1673ffffffffffffffffffffffffffffffffffffffff168373ffffffffffffffffffffffffffffffffffffffff161415610877576040517f08c379a000000000000000000000000000000000000000000000000000000000815260040161086e90612f9e565b60405180910390fd5b6108a282828573ffffffffffffffffffffffffffffffffffffffff166120509092919063ffffffff16565b8173ffffffffffffffffffffffffffffffffffffffff168373ffffffffffffffffffffffffffffffffffffffff167ffff3b3844276f57024e0b42afec1a37f75db36511e43819a4f2a63ab7862b648836040516108ff9190612fbe565b60405180910390a3505050565b6000601054905090565b600061092f60065460055461203a90919063ffffffff16565b905090565b600e6020528060005260406000206000915090505481565b60026001541415610992576040517f08c379a000000000000000000000000000000000000000000000000000000000815260040161098990612f5e565b60405180910390fd5b6002600181905550336109a36120d6565b6008819055506109b16117e7565b600781905550600073ffffffffffffffffffffffffffffffffffffffff168173ffffffffffffffffffffffffffffffffffffffff1614610a7e576109f481612164565b600d60008373ffffffffffffffffffffffffffffffffffffffff1673ffffffffffffffffffffffffffffffffffffffff16815260200190815260200160002081905550600854600c60008373ffffffffffffffffffffffffffffffffffffffff1673ffffffffffffffffffffffffffffffffffffffff168152602001908152602001600020819055505b60008211610ac1576040517f08c379a0000000000000000000000000000000000000000000000000000000008152600401610ab890612e7e565b60405180910390fd5b610ad68260105461202490919063ffffffff16565b601081905550610b2e82601160003373ffffffffffffffffffffffffffffffffffffffff1673ffffffffffffffffffffffffffffffffffffffff1681526020019081526020016000205461202490919063ffffffff16565b601160003373ffffffffffffffffffffffffffffffffffffffff1673ffffffffffffffffffffffffffffffffffffffff16815260200190815260200160002081905550610bc382601260003373ffffffffffffffffffffffffffffffffffffffff1673ffffffffffffffffffffffffffffffffffffffff1681526020019081526020016000205461200e90919063ffffffff16565b601260003373ffffffffffffffffffffffffffffffffffffffff1673ffffffffffffffffffffffffffffffffffffffff1681526020019081526020016000208190555042601360003373ffffffffffffffffffffffffffffffffffffffff1673ffffffffffffffffffffffffffffffffffffffff16815260200190815260200160002081905550610c9e600954601360003373ffffffffffffffffffffffffffffffffffffffff1673ffffffffffffffffffffffffffffffffffffffff1681526020019081526020016000205461200e90919063ffffffff16565b600e60003373ffffffffffffffffffffffffffffffffffffffff1673ffffffffffffffffffffffffffffffffffffffff168152602001908152602001600020819055506000600f6000600b54815260200190815260200160002090508281600201541115610d2657610d1d83826002015461202490919063ffffffff16565b81600201819055505b6000601160003373ffffffffffffffffffffffffffffffffffffffff1673ffffffffffffffffffffffffffffffffffffffff16815260200190815260200160002054148015610d79575060008160030154115b15610d9f57610d966001826003015461202490919063ffffffff16565b81600301819055505b3373ffffffffffffffffffffffffffffffffffffffff167f0f5bb82176feb1b5e747e28471aa92156a04d9f3ab9f45f28e2d704232b93f7584604051610de59190612fbe565b60405180910390a250506001808190555050565b610e41601160003373ffffffffffffffffffffffffffffffffffffffff1673ffffffffffffffffffffffffffffffffffffffff1681526020019081526020016000205461094c565b565b60065481565b60008054906101000a900473ffffffffffffffffffffffffffffffffffffffff1673ffffffffffffffffffffffffffffffffffffffff163373ffffffffffffffffffffffffffffffffffffffff1614610ed7576040517f08c379a0000000000000000000000000000000000000000000000000000000008152600401610ece90612efe565b60405180910390fd5b6000610ee16120d6565b600881905550610eef6117e7565b600781905550600073ffffffffffffffffffffffffffffffffffffffff168173ffffffffffffffffffffffffffffffffffffffff1614610fbc57610f3281612164565b600d60008373ffffffffffffffffffffffffffffffffffffffff1673ffffffffffffffffffffffffffffffffffffffff16815260200190815260200160002081905550600854600c60008373ffffffffffffffffffffffffffffffffffffffff1673ffffffffffffffffffffffffffffffffffffffff168152602001908152602001600020819055505b60008290506004544210610fea57610fdf6006548461228290919063ffffffff16565b600581905550611061565b60006110014260045461202490919063ffffffff16565b9050600061101a6005548361203a90919063ffffffff16565b905061102f818461200e90919063ffffffff16565b925061105860065461104a838861200e90919063ffffffff16565b61228290919063ffffffff16565b60058190555050505b6000600260009054906101000a900473ffffffffffffffffffffffffffffffffffffffff1673ffffffffffffffffffffffffffffffffffffffff166370a08231306040518263ffffffff1660e01b81526004016110be9190612d86565b60206040518083038186803b1580156110d657600080fd5b505afa1580156110ea573d6000803e3d6000fd5b505050506040513d601f19601f8201168201806040525081019061110e91906128f1565b9050818110156112475761119960008054906101000a900473ffffffffffffffffffffffffffffffffffffffff1630611150848661202490919063ffffffff16565b600260009054906101000a900473ffffffffffffffffffffffffffffffffffffffff1673ffffffffffffffffffffffffffffffffffffffff16612298909392919063ffffffff16565b600260009054906101000a900473ffffffffffffffffffffffffffffffffffffffff1673ffffffffffffffffffffffffffffffffffffffff166370a08231306040518263ffffffff1660e01b81526004016111f49190612d86565b60206040518083038186803b15801561120c57600080fd5b505afa158015611220573d6000803e3d6000fd5b505050506040513d601f19601f8201168201806040525081019061124491906128f1565b90505b61125c6006548261228290919063ffffffff16565b60055411156112a0576040517f08c379a000000000000000000000000000000000000000000000000000000000815260040161129790612e9e565b60405180910390fd5b426007819055506112bc6006544261200e90919063ffffffff16565b6004819055506112d86001600b5461200e90919063ffffffff16565b600b81905550600b54600a819055506000600f60006113036001600b5461202490919063ffffffff16565b81526020019081526020016000206040518060c001604052908160008201548152602001600182015481526020016002820154815260200160038201548152602001600482015481526020016005820154815250509050600080826020015114611371578160200151611373565b425b90506040518060c0016040528082815260200160045481526020018360400151815260200183606001518152602001858152602001600554815250600f6000600b548152602001908152602001600020600082015181600001556020820151816001015560408201518160020155606082015181600301556080820151816004015560a082015181600501559050507fde88a922e0d3b88b24e9623efeb464919c6bf9f66857a65e2bfcf2ce87a9433d866040516114319190612fbe565b60405180910390a1505050505050565b60008054906101000a900473ffffffffffffffffffffffffffffffffffffffff1681565b600260015414156114ab576040517f08c379a00000000000000000000000000000000000000000000000000000000081526004016114a290612f5e565b60405180910390fd5b6002600181905550336114bc6120d6565b6008819055506114ca6117e7565b600781905550600073ffffffffffffffffffffffffffffffffffffffff168173ffffffffffffffffffffffffffffffffffffffff16146115975761150d81612164565b600d60008373ffffffffffffffffffffffffffffffffffffffff1673ffffffffffffffffffffffffffffffffffffffff16815260200190815260200160002081905550600854600c60008373ffffffffffffffffffffffffffffffffffffffff1673ffffffffffffffffffffffffffffffffffffffff168152602001908152602001600020819055505b6000601260003373ffffffffffffffffffffffffffffffffffffffff1673ffffffffffffffffffffffffffffffffffffffff1681526020019081526020016000205411611619576040517f08c379a000000000000000000000000000000000000000000000000000000000815260040161161090612f3e565b60405180910390fd5b60095461166e601360003373ffffffffffffffffffffffffffffffffffffffff1673ffffffffffffffffffffffffffffffffffffffff168152602001908152602001600020544261202490919063ffffffff16565b116116ae576040517f08c379a00000000000000000000000000000000000000000000000000000000081526004016116a590612f3e565b60405180910390fd5b61171b600360009054906101000a900473ffffffffffffffffffffffffffffffffffffffff163033601260003373ffffffffffffffffffffffffffffffffffffffff1673ffffffffffffffffffffffffffffffffffffffff16815260200190815260200160002054612321565b6000601260003373ffffffffffffffffffffffffffffffffffffffff1673ffffffffffffffffffffffffffffffffffffffff1681526020019081526020016000208190555061176861241c565b5060018081905550565b6000601160008373ffffffffffffffffffffffffffffffffffffffff1673ffffffffffffffffffffffffffffffffffffffff168152602001908152602001600020549050919050565b600360009054906101000a900473ffffffffffffffffffffffffffffffffffffffff1681565b60055481565b60006117f54260045461254d565b905090565b600c6020528060005260406000206000915090505481565b60026001541415611858576040517f08c379a000000000000000000000000000000000000000000000000000000000815260040161184f90612f5e565b60405180910390fd5b6002600181905550336118696120d6565b6008819055506118776117e7565b600781905550600073ffffffffffffffffffffffffffffffffffffffff168173ffffffffffffffffffffffffffffffffffffffff1614611944576118ba81612164565b600d60008373ffffffffffffffffffffffffffffffffffffffff1673ffffffffffffffffffffffffffffffffffffffff16815260200190815260200160002081905550600854600c60008373ffffffffffffffffffffffffffffffffffffffff1673ffffffffffffffffffffffffffffffffffffffff168152602001908152602001600020819055505b60008211611987576040517f08c379a000000000000000000000000000000000000000000000000000000000815260040161197e90612e3e565b60405180910390fd5b61199c8260105461200e90919063ffffffff16565b6010819055506000600f6000600b54815260200190815260200160002090506119d283826002015461200e90919063ffffffff16565b81600201819055506000601160003373ffffffffffffffffffffffffffffffffffffffff1673ffffffffffffffffffffffffffffffffffffffff168152602001908152602001600020541415611a4357611a3a6001826003015461200e90919063ffffffff16565b81600301819055505b611a9583601160003373ffffffffffffffffffffffffffffffffffffffff1673ffffffffffffffffffffffffffffffffffffffff1681526020019081526020016000205461200e90919063ffffffff16565b601160003373ffffffffffffffffffffffffffffffffffffffff1673ffffffffffffffffffffffffffffffffffffffff16815260200190815260200160002081905550611b27333085600360009054906101000a900473ffffffffffffffffffffffffffffffffffffffff1673ffffffffffffffffffffffffffffffffffffffff16612298909392919063ffffffff16565b3373ffffffffffffffffffffffffffffffffffffffff167f9e71bc8eea02a63969f509818f2dafb9254532904319f9dbda79b67bd34a5f3d84604051611b6d9190612fbe565b60405180910390a250506001808190555050565b600f6020528060005260406000206000915090508060000154908060010154908060020154908060030154908060040154908060050154905086565b60075481565b60008054906101000a900473ffffffffffffffffffffffffffffffffffffffff1673ffffffffffffffffffffffffffffffffffffffff163373ffffffffffffffffffffffffffffffffffffffff1614611c51576040517f08c379a0000000000000000000000000000000000000000000000000000000008152600401611c4890612efe565b60405180910390fd5b60006009549050816009819055507fa5a6f4411011afd14b9d9f6c86eea102506f6864237c6ac582a77a777b1341e38183604051611c90929190612fd9565b60405180910390a15050565b600260009054906101000a900473ffffffffffffffffffffffffffffffffffffffff1681565b60026001541415611d08576040517f08c379a0000000000000000000000000000000000000000000000000000000008152600401611cff90612f5e565b60405180910390fd5b60026001819055506000611da3601260003373ffffffffffffffffffffffffffffffffffffffff1673ffffffffffffffffffffffffffffffffffffffff16815260200190815260200160002054601160003373ffffffffffffffffffffffffffffffffffffffff1673ffffffffffffffffffffffffffffffffffffffff1681526020019081526020016000205461200e90919063ffffffff16565b9050611df23382600360009054906101000a900473ffffffffffffffffffffffffffffffffffffffff1673ffffffffffffffffffffffffffffffffffffffff166120509092919063ffffffff16565b3373ffffffffffffffffffffffffffffffffffffffff167f5fafa99d0643513820be26656b45130b01e1c03062e1266bf36f88cbd3bd969582604051611e389190612fbe565b60405180910390a26000601160003373ffffffffffffffffffffffffffffffffffffffff1673ffffffffffffffffffffffffffffffffffffffff168152602001908152602001600020819055506000601260003373ffffffffffffffffffffffffffffffffffffffff1673ffffffffffffffffffffffffffffffffffffffff168152602001908152602001600020819055506000600d60003373ffffffffffffffffffffffffffffffffffffffff1673ffffffffffffffffffffffffffffffffffffffff1681526020019081526020016000208190555042601360003373ffffffffffffffffffffffffffffffffffffffff1673ffffffffffffffffffffffffffffffffffffffff168152602001908152602001600020819055505060018081905550565b60085481565b600a5481565b60045481565b60095481565b6000806000601160003373ffffffffffffffffffffffffffffffffffffffff1673ffffffffffffffffffffffffffffffffffffffff168152602001908152602001600020549250611fc533612164565b9150601260003373ffffffffffffffffffffffffffffffffffffffff1673ffffffffffffffffffffffffffffffffffffffff168152602001908152602001600020549050909192565b6000818361201c91906130cc565b905092915050565b6000818361203291906131ad565b905092915050565b600081836120489190613153565b905092915050565b6120d18363a9059cbb60e01b848460405160240161206f929190612dd8565b604051602081830303815290604052907bffffffffffffffffffffffffffffffffffffffffffffffffffffffff19166020820180517bffffffffffffffffffffffffffffffffffffffffffffffffffffffff8381831617835250505050612566565b505050565b60008060105414156120ec576008549050612161565b61215e61214d60105461213f670de0b6b3a76400006121316005546121236007546121156117e7565b61202490919063ffffffff16565b61203a90919063ffffffff16565b61203a90919063ffffffff16565b61228290919063ffffffff16565b60085461200e90919063ffffffff16565b90505b90565b600061227b600d60008473ffffffffffffffffffffffffffffffffffffffff1673ffffffffffffffffffffffffffffffffffffffff1681526020019081526020016000205461226d670de0b6b3a764000061225f612211600c60008973ffffffffffffffffffffffffffffffffffffffff1673ffffffffffffffffffffffffffffffffffffffff168152602001908152602001600020546122036120d6565b61202490919063ffffffff16565b601160008973ffffffffffffffffffffffffffffffffffffffff1673ffffffffffffffffffffffffffffffffffffffff1681526020019081526020016000205461203a90919063ffffffff16565b61228290919063ffffffff16565b61200e90919063ffffffff16565b9050919050565b600081836122909190613122565b905092915050565b61231b846323b872dd60e01b8585856040516024016122b993929190612da1565b604051602081830303815290604052907bffffffffffffffffffffffffffffffffffffffffffffffffffffffff19166020820180517bffffffffffffffffffffffffffffffffffffffffffffffffffffffff8381831617835250505050612566565b50505050565b60008473ffffffffffffffffffffffffffffffffffffffff166370a08231856040518263ffffffff1660e01b815260040161235c9190612d86565b60206040518083038186803b15801561237457600080fd5b505afa158015612388573d6000803e3d6000fd5b505050506040513d601f19601f820116820180604052508101906123ac91906128f1565b90508181106123e7576123e28484848873ffffffffffffffffffffffffffffffffffffffff16612298909392919063ffffffff16565b612415565b6124148484838873ffffffffffffffffffffffffffffffffffffffff16612298909392919063ffffffff16565b5b5050505050565b6000600d60003373ffffffffffffffffffffffffffffffffffffffff1673ffffffffffffffffffffffffffffffffffffffff168152602001908152602001600020549050600081111561254a576000600d60003373ffffffffffffffffffffffffffffffffffffffff1673ffffffffffffffffffffffffffffffffffffffff168152602001908152602001600020819055506124fb3382600260009054906101000a900473ffffffffffffffffffffffffffffffffffffffff1673ffffffffffffffffffffffffffffffffffffffff166120509092919063ffffffff16565b3373ffffffffffffffffffffffffffffffffffffffff167fe2403640ba68fed3a2f88b7557551d1993f84b99bb10ff833f0cf8db0c5e0486826040516125419190612fbe565b60405180910390a25b50565b600081831061255c578161255e565b825b905092915050565b60006125c8826040518060400160405280602081526020017f5361666545524332303a206c6f772d6c6576656c2063616c6c206661696c65648152508573ffffffffffffffffffffffffffffffffffffffff1661262d9092919063ffffffff16565b905060008151111561262857808060200190518101906125e8919061289f565b612627576040517f08c379a000000000000000000000000000000000000000000000000000000000815260040161261e90612f1e565b60405180910390fd5b5b505050565b606061263c8484600085612645565b90509392505050565b60608247101561268a576040517f08c379a000000000000000000000000000000000000000000000000000000000815260040161268190612e5e565b60405180910390fd5b61269385612759565b6126d2576040517f08c379a00000000000000000000000000000000000000000000000000000000081526004016126c990612ebe565b60405180910390fd5b6000808673ffffffffffffffffffffffffffffffffffffffff1685876040516126fb9190612d6f565b60006040518083038185875af1925050503d8060008114612738576040519150601f19603f3d011682016040523d82523d6000602084013e61273d565b606091505b509150915061274d82828661276c565b92505050949350505050565b600080823b905060008111915050919050565b6060831561277c578290506127cc565b60008351111561278f5782518084602001fd5b816040517f08c379a00000000000000000000000000000000000000000000000000000000081526004016127c39190612e1c565b60405180910390fd5b9392505050565b6000813590506127e2816132ef565b92915050565b6000815190506127f781613306565b92915050565b60008135905061280c8161331d565b92915050565b6000815190506128218161331d565b92915050565b60006020828403121561283957600080fd5b6000612847848285016127d3565b91505092915050565b60008060006060848603121561286557600080fd5b6000612873868287016127d3565b9350506020612884868287016127d3565b9250506040612895868287016127fd565b9150509250925092565b6000602082840312156128b157600080fd5b60006128bf848285016127e8565b91505092915050565b6000602082840312156128da57600080fd5b60006128e8848285016127fd565b91505092915050565b60006020828403121561290357600080fd5b600061291184828501612812565b91505092915050565b612923816131e1565b82525050565b60006129348261309a565b61293e81856130b0565b935061294e81856020860161324d565b80840191505092915050565b61296381613229565b82525050565b6000612974826130a5565b61297e81856130bb565b935061298e81856020860161324d565b612997816132de565b840191505092915050565b60006129af600e836130bb565b91507f43616e6e6f74207374616b6520300000000000000000000000000000000000006000830152602082019050919050565b60006129ef6026836130bb565b91507f416464726573733a20696e73756666696369656e742062616c616e636520666f60008301527f722063616c6c00000000000000000000000000000000000000000000000000006020830152604082019050919050565b6000612a556011836130bb565b91507f43616e6e6f7420776974686472617720300000000000000000000000000000006000830152602082019050919050565b6000612a956018836130bb565b91507f50726f76696465642072657761726420746f6f206869676800000000000000006000830152602082019050919050565b6000612ad5601d836130bb565b91507f416464726573733a2063616c6c20746f206e6f6e2d636f6e74726163740000006000830152602082019050919050565b6000612b156015836130bb565b91507f496e76616c696420746f6b656e206164647265737300000000000000000000006000830152602082019050919050565b6000612b55602a836130bb565b91507f43616c6c6572206973206e6f742052657761726473446973747269627574696f60008301527f6e20636f6e7472616374000000000000000000000000000000000000000000006020830152604082019050919050565b6000612bbb602a836130bb565b91507f5361666545524332303a204552433230206f7065726174696f6e20646964206e60008301527f6f742073756363656564000000000000000000000000000000000000000000006020830152604082019050919050565b6000612c216016836130bb565b91507f68617665206e6f20746f6b656e20746f20636c61696d000000000000000000006000830152602082019050919050565b6000612c61601f836130bb565b91507f5265656e7472616e637947756172643a207265656e7472616e742063616c6c006000830152602082019050919050565b6000612ca16021836130bb565b91507f43616e6e6f7420776974686472617720746865207374616b696e6720746f6b6560008301527f6e000000000000000000000000000000000000000000000000000000000000006020830152604082019050919050565b6000612d076021836130bb565b91507f43616e6e6f7420776974686472617720746865207265776172647320746f6b6560008301527f6e000000000000000000000000000000000000000000000000000000000000006020830152604082019050919050565b612d698161321f565b82525050565b6000612d7b8284612929565b915081905092915050565b6000602082019050612d9b600083018461291a565b92915050565b6000606082019050612db6600083018661291a565b612dc3602083018561291a565b612dd06040830184612d60565b949350505050565b6000604082019050612ded600083018561291a565b612dfa6020830184612d60565b9392505050565b6000602082019050612e16600083018461295a565b92915050565b60006020820190508181036000830152612e368184612969565b905092915050565b60006020820190508181036000830152612e57816129a2565b9050919050565b60006020820190508181036000830152612e77816129e2565b9050919050565b60006020820190508181036000830152612e9781612a48565b9050919050565b60006020820190508181036000830152612eb781612a88565b9050919050565b60006020820190508181036000830152612ed781612ac8565b9050919050565b60006020820190508181036000830152612ef781612b08565b9050919050565b60006020820190508181036000830152612f1781612b48565b9050919050565b60006020820190508181036000830152612f3781612bae565b9050919050565b60006020820190508181036000830152612f5781612c14565b9050919050565b60006020820190508181036000830152612f7781612c54565b9050919050565b60006020820190508181036000830152612f9781612c94565b9050919050565b60006020820190508181036000830152612fb781612cfa565b9050919050565b6000602082019050612fd36000830184612d60565b92915050565b6000604082019050612fee6000830185612d60565b612ffb6020830184612d60565b9392505050565b60006060820190506130176000830186612d60565b6130246020830185612d60565b6130316040830184612d60565b949350505050565b600060c08201905061304e6000830189612d60565b61305b6020830188612d60565b6130686040830187612d60565b6130756060830186612d60565b6130826080830185612d60565b61308f60a0830184612d60565b979650505050505050565b600081519050919050565b600081519050919050565b600081905092915050565b600082825260208201905092915050565b60006130d78261321f565b91506130e28361321f565b9250827fffffffffffffffffffffffffffffffffffffffffffffffffffffffffffffffff0382111561311757613116613280565b5b828201905092915050565b600061312d8261321f565b91506131388361321f565b925082613148576131476132af565b5b828204905092915050565b600061315e8261321f565b91506131698361321f565b9250817fffffffffffffffffffffffffffffffffffffffffffffffffffffffffffffffff04831182151516156131a2576131a1613280565b5b828202905092915050565b60006131b88261321f565b91506131c38361321f565b9250828210156131d6576131d5613280565b5b828203905092915050565b60006131ec826131ff565b9050919050565b60008115159050919050565b600073ffffffffffffffffffffffffffffffffffffffff82169050919050565b6000819050919050565b60006132348261323b565b9050919050565b6000613246826131ff565b9050919050565b60005b8381101561326b578082015181840152602081019050613250565b8381111561327a576000848401525b50505050565b7f4e487b7100000000000000000000000000000000000000000000000000000000600052601160045260246000fd5b7f4e487b7100000000000000000000000000000000000000000000000000000000600052601260045260246000fd5b6000601f19601f8301169050919050565b6132f8816131e1565b811461330357600080fd5b50565b61330f816131f3565b811461331a57600080fd5b50565b6133268161321f565b811461333157600080fd5b5056fea26469706673582212208223531053ffea4bda4f0bd041665141aebbd19188c7dd6bf18af6da2e96546964736f6c63430008000033",
  "linkReferences": {},
  "deployedLinkReferences": {}
}